{
  "_format": "hh-sol-artifact-1",
  "contractName": "Payment",
  "sourceName": "contracts/Payment.sol",
  "abi": [
    {
      "inputs": [
        {
          "internalType": "address",
          "name": "user",
          "type": "address"
        }
      ],
      "name": "sendEther",
      "outputs": [],
      "stateMutability": "payable",
      "type": "function"
    },
    {
      "inputs": [],
      "name": "total",
      "outputs": [
        {
          "internalType": "uint256",
          "name": "",
          "type": "uint256"
        }
      ],
      "stateMutability": "view",
      "type": "function"
    }
  ],
  "bytecode": "0x60806040526000805534801561001457600080fd5b506102fa806100246000396000f3fe6080604052600436106100295760003560e01c80632ddbd13a1461002e57806348c981e214610059575b600080fd5b34801561003a57600080fd5b50610043610075565b6040516100509190610139565b60405180910390f35b610073600480360381019061006e91906101b7565b61007b565b005b60005481565b600034116100be576040517f08c379a00000000000000000000000000000000000000000000000000000000081526004016100b590610241565b60405180910390fd5b8073ffffffffffffffffffffffffffffffffffffffff166108fc349081150290604051600060405180830381858888f19350505050158015610104573d6000803e3d6000fd5b50346000808282546101169190610290565b9250508190555050565b6000819050919050565b61013381610120565b82525050565b600060208201905061014e600083018461012a565b92915050565b600080fd5b600073ffffffffffffffffffffffffffffffffffffffff82169050919050565b600061018482610159565b9050919050565b61019481610179565b811461019f57600080fd5b50565b6000813590506101b18161018b565b92915050565b6000602082840312156101cd576101cc610154565b5b60006101db848285016101a2565b91505092915050565b600082825260208201905092915050565b7f506c656173652068617665200000000000000000000000000000000000000000600082015250565b600061022b600c836101e4565b9150610236826101f5565b602082019050919050565b6000602082019050818103600083015261025a8161021e565b9050919050565b7f4e487b7100000000000000000000000000000000000000000000000000000000600052601160045260246000fd5b600061029b82610120565b91506102a683610120565b92508282019050808211156102be576102bd610261565b5b9291505056fea2646970667358221220f16c4a6465c2f8bfbc198f0c48832ba04932e500a47a70b839dd8c82304a5ddc64736f6c63430008180033",
  "linkReferences": {},
  "deployedLinkReferences": {}
}